{
  "contractName": "coinFlip",
  "abi": [
    {
      "anonymous": false,
      "inputs": [
        {
          "indexed": false,
          "internalType": "bytes32",
          "name": "queryID",
          "type": "bytes32"
        },
        {
          "indexed": false,
          "internalType": "uint256",
          "name": "playerChoice",
          "type": "uint256"
        },
        {
          "indexed": false,
          "internalType": "address",
          "name": "playerAddress",
          "type": "address"
        }
      ],
      "name": "flipRes",
      "type": "event"
    },
    {
      "anonymous": false,
      "inputs": [
        {
          "indexed": false,
          "internalType": "uint256",
          "name": "randomNumber",
          "type": "uint256"
        }
      ],
      "name": "generatedRandomNumber",
      "type": "event"
    },
    {
      "anonymous": false,
      "inputs": [
        {
          "indexed": false,
          "internalType": "uint256",
          "name": "value",
          "type": "uint256"
        },
        {
          "indexed": false,
          "internalType": "address",
          "name": "player",
          "type": "address"
        }
      ],
      "name": "invest",
      "type": "event"
    },
    {
      "constant": true,
      "inputs": [
        {
          "internalType": "bytes32",
          "name": "",
          "type": "bytes32"
        }
      ],
      "name": "currentBets",
      "outputs": [
        {
          "internalType": "address payable",
          "name": "playerAddress",
          "type": "address"
        },
        {
          "internalType": "bytes32",
          "name": "betID",
          "type": "bytes32"
        },
        {
          "internalType": "uint256",
          "name": "playerChoice",
          "type": "uint256"
        },
        {
          "internalType": "uint256",
          "name": "betAmount",
          "type": "uint256"
        }
      ],
      "payable": false,
      "stateMutability": "view",
      "type": "function"
    },
    {
      "constant": true,
      "inputs": [],
      "name": "latestNumber",
      "outputs": [
        {
          "internalType": "uint256",
          "name": "",
          "type": "uint256"
        }
      ],
      "payable": false,
      "stateMutability": "view",
      "type": "function"
    },
    {
      "constant": false,
      "inputs": [
        {
          "internalType": "bytes32",
          "name": "_myid",
          "type": "bytes32"
        },
        {
          "internalType": "string",
          "name": "_result",
          "type": "string"
        }
      ],
      "name": "__callback",
      "outputs": [],
      "payable": false,
      "stateMutability": "nonpayable",
      "type": "function"
    },
    {
      "constant": false,
      "inputs": [
        {
          "internalType": "bytes32",
          "name": "_queryID",
          "type": "bytes32"
        },
        {
          "internalType": "string",
          "name": "_result",
          "type": "string"
        },
        {
          "internalType": "bytes",
          "name": "_proof",
          "type": "bytes"
        }
      ],
      "name": "__callback",
      "outputs": [],
      "payable": false,
      "stateMutability": "nonpayable",
      "type": "function"
    },
    {
      "constant": false,
      "inputs": [
        {
          "internalType": "uint256",
          "name": "playerChoice",
          "type": "uint256"
        }
      ],
      "name": "flipCoin",
      "outputs": [],
      "payable": true,
      "stateMutability": "payable",
      "type": "function"
    },
    {
      "constant": false,
      "inputs": [
        {
          "internalType": "uint256",
          "name": "value",
          "type": "uint256"
        }
      ],
      "name": "investToContract",
      "outputs": [],
      "payable": true,
      "stateMutability": "payable",
      "type": "function"
    },
    {
      "constant": false,
      "inputs": [],
      "name": "payOut",
      "outputs": [],
      "payable": true,
      "stateMutability": "payable",
      "type": "function"
    }
  ],
  "bytecode": "0x6080604052336000806101000a81548173ffffffffffffffffffffffffffffffffffffffff021916908373ffffffffffffffffffffffffffffffffffffffff160217905550612b0a806100536000396000f3fe6080604052600436106100705760003560e01c80635f5be1f41161004e5780635f5be1f4146102de578063c20524031461030c578063d0428cf014610316578063dc34b0aa146103a657610070565b806327dc297e1461007557806338bbfa50146101475780634a6ef25c146102b0575b600080fd5b34801561008157600080fd5b506101456004803603604081101561009857600080fd5b8101908080359060200190929190803590602001906401000000008111156100bf57600080fd5b8201836020820111156100d157600080fd5b803590602001918460018302840111640100000000831117156100f357600080fd5b91908080601f016020809104026020016040519081016040528093929190818152602001838380828437600081840152601f19601f8201169050808301925050505050505091929192905050506103d1565b005b34801561015357600080fd5b506102ae6004803603606081101561016a57600080fd5b81019080803590602001909291908035906020019064010000000081111561019157600080fd5b8201836020820111156101a357600080fd5b803590602001918460018302840111640100000000831117156101c557600080fd5b91908080601f016020809104026020016040519081016040528093929190818152602001838380828437600081840152601f19601f8201169050808301925050505050505091929192908035906020019064010000000081111561022857600080fd5b82018360208201111561023a57600080fd5b8035906020019184600183028401116401000000008311171561025c57600080fd5b91908080601f016020809104026020016040519081016040528093929190818152602001838380828437600081840152601f19601f820116905080830192505050505050509192919290505050610414565b005b6102dc600480360360208110156102c657600080fd5b8101908080359060200190929190505050610572565b005b61030a600480360360208110156102f457600080fd5b81019080803590602001909291905050506105f6565b005b61031461090e565b005b34801561032257600080fd5b5061034f6004803603602081101561033957600080fd5b81019080803590602001909291905050506109e8565b604051808573ffffffffffffffffffffffffffffffffffffffff1673ffffffffffffffffffffffffffffffffffffffff16815260200184815260200183815260200182815260200194505050505060405180910390f35b3480156103b257600080fd5b506103bb610a38565b6040518082815260200191505060405180910390f35b610410828260006040519080825280601f01601f19166020018201604052801561040a5781602001600182028038833980820191505090505b50610414565b5050565b61041c610a3e565b73ffffffffffffffffffffffffffffffffffffffff163373ffffffffffffffffffffffffffffffffffffffff161461045357600080fd5b60006002836040516020018082805190602001908083835b6020831061048e578051825260208201915060208101905060208303925061046b565b6001836020036101000a0380198251168184511680821785525050505050509050019150506040516020818303038152906040528051906020012060001c816104d357fe5b069050806006819055506000600860003373ffffffffffffffffffffffffffffffffffffffff1673ffffffffffffffffffffffffffffffffffffffff16815260200190815260200160002060006101000a81548160ff0219169083151502179055507fc13d60fe9dffdb6908d2d446cd18134373a51db0738ee04f296eeb9128121cbc816040518082815260200191505060405180910390a150505050565b66038d7ea4c680008034101561058757600080fd5b7f3d103b975d499cadbf42a81ca1d2a9e5c29a44b0af0a9c32149d39c7baa4ca738233604051808381526020018273ffffffffffffffffffffffffffffffffffffffff1673ffffffffffffffffffffffffffffffffffffffff1681526020019250505060405180910390a15050565b662386f26fc100008034101561060b57600080fd5b662386f26fc10000341015610688576040517f08c379a00000000000000000000000000000000000000000000000000000000081526004018080602001828103825260128152602001807f506c6163652061206265742066697273742e000000000000000000000000000081525060200191505060405180910390fd5b60001515600860003373ffffffffffffffffffffffffffffffffffffffff1673ffffffffffffffffffffffffffffffffffffffff16815260200190815260200160002060009054906101000a900460ff16151514610731576040517f08c379a000000000000000000000000000000000000000000000000000000000815260040180806020018281038252602f815260200180612aa7602f913960400191505060405180910390fd5b6000809050600062030d409050600061074c83600184610d5e565b905061075661297f565b33816000019073ffffffffffffffffffffffffffffffffffffffff16908173ffffffffffffffffffffffffffffffffffffffff16815250508181602001818152505085816040018181525050348160600181815250506107ba8160200151826112f9565b6001600860003373ffffffffffffffffffffffffffffffffffffffff1673ffffffffffffffffffffffffffffffffffffffff16815260200190815260200160002060006101000a81548160ff0219169083151502179055507fcff1351021e803322b70cdc0dbc825043092d3dcc9edab340823e4d3d5da00c98160200151826040015133604051808481526020018381526020018273ffffffffffffffffffffffffffffffffffffffff1673ffffffffffffffffffffffffffffffffffffffff168152602001935050505060405180910390a161090681602001516040518060400160405280600181526020017f31000000000000000000000000000000000000000000000000000000000000008152506040518060400160405280600481526020017f7465737400000000000000000000000000000000000000000000000000000000815250610414565b505050505050565b6000809054906101000a900473ffffffffffffffffffffffffffffffffffffffff1673ffffffffffffffffffffffffffffffffffffffff163373ffffffffffffffffffffffffffffffffffffffff161461096757600080fd5b60003073ffffffffffffffffffffffffffffffffffffffff163111156109e6573373ffffffffffffffffffffffffffffffffffffffff166108fc3073ffffffffffffffffffffffffffffffffffffffff16319081150290604051600060405180830381858888f193505050501580156109e4573d6000803e3d6000fd5b505b565b60076020528060005260406000206000915090508060000160009054906101000a900473ffffffffffffffffffffffffffffffffffffffff16908060010154908060020154908060030154905084565b60065481565b60008073ffffffffffffffffffffffffffffffffffffffff16600260009054906101000a900473ffffffffffffffffffffffffffffffffffffffff1673ffffffffffffffffffffffffffffffffffffffff161480610ac657506000610ac4600260009054906101000a900473ffffffffffffffffffffffffffffffffffffffff16611379565b145b15610ad757610ad56000611384565b505b600260009054906101000a900473ffffffffffffffffffffffffffffffffffffffff1673ffffffffffffffffffffffffffffffffffffffff166338cc48316040518163ffffffff1660e01b8152600401602060405180830381600087803b158015610b4157600080fd5b505af1158015610b55573d6000803e3d6000fd5b505050506040513d6020811015610b6b57600080fd5b810190808051906020019092919050505073ffffffffffffffffffffffffffffffffffffffff16600160009054906101000a900473ffffffffffffffffffffffffffffffffffffffff1673ffffffffffffffffffffffffffffffffffffffff1614610cb657600260009054906101000a900473ffffffffffffffffffffffffffffffffffffffff1673ffffffffffffffffffffffffffffffffffffffff166338cc48316040518163ffffffff1660e01b8152600401602060405180830381600087803b158015610c3a57600080fd5b505af1158015610c4e573d6000803e3d6000fd5b505050506040513d6020811015610c6457600080fd5b8101908080519060200190929190505050600160006101000a81548173ffffffffffffffffffffffffffffffffffffffff021916908373ffffffffffffffffffffffffffffffffffffffff1602179055505b600160009054906101000a900473ffffffffffffffffffffffffffffffffffffffff1673ffffffffffffffffffffffffffffffffffffffff1663c281d19e6040518163ffffffff1660e01b815260040160206040518083038186803b158015610d1e57600080fd5b505afa158015610d32573d6000803e3d6000fd5b505050506040513d6020811015610d4857600080fd5b8101908080519060200190929190505050905090565b60008083118015610d70575060208311155b610d7957600080fd5b600a84029350606060016040519080825280601f01601f191660200182016040528015610db55781602001600182028038833980820191505090505b5090508360f81b81600081518110610dc957fe5b60200101907effffffffffffffffffffffffffffffffffffffffffffffffffffffffffffff1916908160001a905350606060206040519080825280601f01601f191660200182016040528015610e2e5781602001600182028038833980820191505090505b509050606060206040519080825280601f01601f191660200182016040528015610e675781602001600182028038833980820191505090505b5090506000610e74611395565b905060208352424118600143034018602084015260208252806020830152606060206040519080825280601f01601f191660200182016040528015610ec85781602001600182028038833980820191505090505b509050886020820152606060086040519080825280601f01601f191660200182016040528015610f075781602001600182028038833980820191505090505b509050610f1a82601860088460006116b5565b50610f236129c0565b60405180608001604052808781526020018881526020018681526020018481525090506000610f886040518060400160405280600681526020017f72616e646f6d0000000000000000000000000000000000000000000000000000815250838c611714565b9050606060086040519080825280601f01601f191660200182016040528015610fc05781602001600182028038833980820191505090505b50905060208401517f0100000000000000000000000000000000000000000000000000000000000000810460278301537e01000000000000000000000000000000000000000000000000000000000000810460268301537d010000000000000000000000000000000000000000000000000000000000810460258301537c0100000000000000000000000000000000000000000000000000000000810460248301537b01000000000000000000000000000000000000000000000000000000810460238301537a0100000000000000000000000000000000000000000000000000008104602283015379010000000000000000000000000000000000000000000000000081046021830153780100000000000000000000000000000000000000000000000081046020830153506112e68282856001600481106110ff57fe5b602002015160028760006004811061111357fe5b60200201516040518082805190602001908083835b6020831061114b5780518252602082019150602081019050602083039250611128565b6001836020036101000a038019825116818451168082178552505050505050905001915050602060405180830381855afa15801561118d573d6000803e3d6000fd5b5050506040513d60208110156111a257600080fd5b8101908080519060200190929190505050876002600481106111c057fe5b60200201516040516020018085805190602001908083835b602083106111fb57805182526020820191506020810190506020830392506111d8565b6001836020036101000a03801982511681845116808217855250505050505090500184805190602001908083835b6020831061124c5780518252602082019150602081019050602083039250611229565b6001836020036101000a03801982511681845116808217855250505050505090500183815260200182805190602001908083835b602083106112a35780518252602082019150602081019050602083039250611280565b6001836020036101000a03801982511681845116808217855250505050505090500194505050505060405160208183030381529060405280519060200120611a83565b8199505050505050505050509392505050565b806007600084815260200190815260200160002060008201518160000160006101000a81548173ffffffffffffffffffffffffffffffffffffffff021916908373ffffffffffffffffffffffffffffffffffffffff1602179055506020820151816001015560408201518160020155606082015181600301559050505050565b6000813b9050919050565b600061138e611a9f565b9050919050565b60008073ffffffffffffffffffffffffffffffffffffffff16600260009054906101000a900473ffffffffffffffffffffffffffffffffffffffff1673ffffffffffffffffffffffffffffffffffffffff16148061141d5750600061141b600260009054906101000a900473ffffffffffffffffffffffffffffffffffffffff16611379565b145b1561142e5761142c6000611384565b505b600260009054906101000a900473ffffffffffffffffffffffffffffffffffffffff1673ffffffffffffffffffffffffffffffffffffffff166338cc48316040518163ffffffff1660e01b8152600401602060405180830381600087803b15801561149857600080fd5b505af11580156114ac573d6000803e3d6000fd5b505050506040513d60208110156114c257600080fd5b810190808051906020019092919050505073ffffffffffffffffffffffffffffffffffffffff16600160009054906101000a900473ffffffffffffffffffffffffffffffffffffffff1673ffffffffffffffffffffffffffffffffffffffff161461160d57600260009054906101000a900473ffffffffffffffffffffffffffffffffffffffff1673ffffffffffffffffffffffffffffffffffffffff166338cc48316040518163ffffffff1660e01b8152600401602060405180830381600087803b15801561159157600080fd5b505af11580156115a5573d6000803e3d6000fd5b505050506040513d60208110156115bb57600080fd5b8101908080519060200190929190505050600160006101000a81548173ffffffffffffffffffffffffffffffffffffffff021916908373ffffffffffffffffffffffffffffffffffffffff1602179055505b600160009054906101000a900473ffffffffffffffffffffffffffffffffffffffff1673ffffffffffffffffffffffffffffffffffffffff1663abaa5f3e6040518163ffffffff1660e01b815260040160206040518083038186803b15801561167557600080fd5b505afa158015611689573d6000803e3d6000fd5b505050506040513d602081101561169f57600080fd5b8101908080519060200190929190505050905090565b60606000828501905080845110156116cc57600080fd5b600086602001905060008460200190505b86886020010182101561170557818901518082880152506020820191506020810190506116dd565b85935050505095945050505050565b60008073ffffffffffffffffffffffffffffffffffffffff16600260009054906101000a900473ffffffffffffffffffffffffffffffffffffffff1673ffffffffffffffffffffffffffffffffffffffff16148061179c5750600061179a600260009054906101000a900473ffffffffffffffffffffffffffffffffffffffff16611379565b145b156117ad576117ab6000611384565b505b600260009054906101000a900473ffffffffffffffffffffffffffffffffffffffff1673ffffffffffffffffffffffffffffffffffffffff166338cc48316040518163ffffffff1660e01b8152600401602060405180830381600087803b15801561181757600080fd5b505af115801561182b573d6000803e3d6000fd5b505050506040513d602081101561184157600080fd5b810190808051906020019092919050505073ffffffffffffffffffffffffffffffffffffffff16600160009054906101000a900473ffffffffffffffffffffffffffffffffffffffff1673ffffffffffffffffffffffffffffffffffffffff161461198c57600260009054906101000a900473ffffffffffffffffffffffffffffffffffffffff1673ffffffffffffffffffffffffffffffffffffffff166338cc48316040518163ffffffff1660e01b8152600401602060405180830381600087803b15801561191057600080fd5b505af1158015611924573d6000803e3d6000fd5b505050506040513d602081101561193a57600080fd5b8101908080519060200190929190505050600160006101000a81548173ffffffffffffffffffffffffffffffffffffffff021916908373ffffffffffffffffffffffffffffffffffffffff1602179055505b606060046040519080825280602002602001820160405280156119c357816020015b60608152602001906001900390816119ae5790505b509050836000600481106119d357fe5b6020020151816000815181106119e557fe5b6020026020010181905250836001600481106119fd57fe5b602002015181600181518110611a0f57fe5b602002602001018190525083600260048110611a2757fe5b602002015181600281518110611a3957fe5b602002602001018190525083600360048110611a5157fe5b602002015181600381518110611a6357fe5b6020026020010181905250611a79858285611ff6565b9150509392505050565b8060046000848152602001908152602001600020819055505050565b600080611abf731d3b2638a7cc9f2cb3d298a3da7a90b67e5506ed611379565b1115611b6157731d3b2638a7cc9f2cb3d298a3da7a90b67e5506ed600260006101000a81548173ffffffffffffffffffffffffffffffffffffffff021916908373ffffffffffffffffffffffffffffffffffffffff160217905550611b586040518060400160405280600b81526020017f6574685f6d61696e6e657400000000000000000000000000000000000000000081525061255c565b60019050611ff3565b6000611b8073c03a2615d5efaf5f49f60b7bb6583eaec212fdf1611379565b1115611c225773c03a2615d5efaf5f49f60b7bb6583eaec212fdf1600260006101000a81548173ffffffffffffffffffffffffffffffffffffffff021916908373ffffffffffffffffffffffffffffffffffffffff160217905550611c196040518060400160405280600c81526020017f6574685f726f707374656e33000000000000000000000000000000000000000081525061255c565b60019050611ff3565b6000611c4173b7a07bcf2ba2f2703b24c0691b5278999c59ac7e611379565b1115611ce35773b7a07bcf2ba2f2703b24c0691b5278999c59ac7e600260006101000a81548173ffffffffffffffffffffffffffffffffffffffff021916908373ffffffffffffffffffffffffffffffffffffffff160217905550611cda6040518060400160405280600981526020017f6574685f6b6f76616e000000000000000000000000000000000000000000000081525061255c565b60019050611ff3565b6000611d0273146500cfd35b22e4a392fe0adc06de1a1368ed48611379565b1115611da45773146500cfd35b22e4a392fe0adc06de1a1368ed48600260006101000a81548173ffffffffffffffffffffffffffffffffffffffff021916908373ffffffffffffffffffffffffffffffffffffffff160217905550611d9b6040518060400160405280600b81526020017f6574685f72696e6b65627900000000000000000000000000000000000000000081525061255c565b60019050611ff3565b6000611dc373a2998efd205fb9d4b4963afb70778d6354ad3a41611379565b1115611e655773a2998efd205fb9d4b4963afb70778d6354ad3a41600260006101000a81548173ffffffffffffffffffffffffffffffffffffffff021916908373ffffffffffffffffffffffffffffffffffffffff160217905550611e5c6040518060400160405280600a81526020017f6574685f676f65726c690000000000000000000000000000000000000000000081525061255c565b60019050611ff3565b6000611e84736f485c8bf6fc43ea212e93bbf8ce046c7f1cb475611379565b1115611ee857736f485c8bf6fc43ea212e93bbf8ce046c7f1cb475600260006101000a81548173ffffffffffffffffffffffffffffffffffffffff021916908373ffffffffffffffffffffffffffffffffffffffff16021790555060019050611ff3565b6000611f077320e12a1f859b3feae5fb2a0a32c18f5a65555bbf611379565b1115611f6b577320e12a1f859b3feae5fb2a0a32c18f5a65555bbf600260006101000a81548173ffffffffffffffffffffffffffffffffffffffff021916908373ffffffffffffffffffffffffffffffffffffffff16021790555060019050611ff3565b6000611f8a7351efaf4c8b3c9afbd5ab9f4bbc82784ab6ef8faa611379565b1115611fee577351efaf4c8b3c9afbd5ab9f4bbc82784ab6ef8faa600260006101000a81548173ffffffffffffffffffffffffffffffffffffffff021916908373ffffffffffffffffffffffffffffffffffffffff16021790555060019050611ff3565b600090505b90565b60008073ffffffffffffffffffffffffffffffffffffffff16600260009054906101000a900473ffffffffffffffffffffffffffffffffffffffff1673ffffffffffffffffffffffffffffffffffffffff16148061207e5750600061207c600260009054906101000a900473ffffffffffffffffffffffffffffffffffffffff16611379565b145b1561208f5761208d6000611384565b505b600260009054906101000a900473ffffffffffffffffffffffffffffffffffffffff1673ffffffffffffffffffffffffffffffffffffffff166338cc48316040518163ffffffff1660e01b8152600401602060405180830381600087803b1580156120f957600080fd5b505af115801561210d573d6000803e3d6000fd5b505050506040513d602081101561212357600080fd5b810190808051906020019092919050505073ffffffffffffffffffffffffffffffffffffffff16600160009054906101000a900473ffffffffffffffffffffffffffffffffffffffff1673ffffffffffffffffffffffffffffffffffffffff161461226e57600260009054906101000a900473ffffffffffffffffffffffffffffffffffffffff1673ffffffffffffffffffffffffffffffffffffffff166338cc48316040518163ffffffff1660e01b8152600401602060405180830381600087803b1580156121f257600080fd5b505af1158015612206573d6000803e3d6000fd5b505050506040513d602081101561221c57600080fd5b8101908080519060200190929190505050600160006101000a81548173ffffffffffffffffffffffffffffffffffffffff021916908373ffffffffffffffffffffffffffffffffffffffff1602179055505b6000600160009054906101000a900473ffffffffffffffffffffffffffffffffffffffff1673ffffffffffffffffffffffffffffffffffffffff16632ef3accc86856040518363ffffffff1660e01b81526004018080602001838152602001828103825284818151815260200191508051906020019080838360005b838110156123055780820151818401526020810190506122ea565b50505050905090810190601f1680156123325780820380516001836020036101000a031916815260200191505b509350505050602060405180830381600087803b15801561235257600080fd5b505af1158015612366573d6000803e3d6000fd5b505050506040513d602081101561237c57600080fd5b81019080805190602001909291905050509050823a02670de0b6b3a7640000018111156123af576000801b915050612555565b60606123ba85612576565b9050600160009054906101000a900473ffffffffffffffffffffffffffffffffffffffff1673ffffffffffffffffffffffffffffffffffffffff1663c55c1cb68360008985896040518663ffffffff1660e01b8152600401808581526020018060200180602001848152602001838103835286818151815260200191508051906020019080838360005b8381101561245f578082015181840152602081019050612444565b50505050905090810190601f16801561248c5780820380516001836020036101000a031916815260200191505b50838103825285818151815260200191508051906020019080838360005b838110156124c55780820151818401526020810190506124aa565b50505050905090810190601f1680156124f25780820380516001836020036101000a031916815260200191505b5096505050505050506020604051808303818588803b15801561251457600080fd5b505af1158015612528573d6000803e3d6000fd5b50505050506040513d602081101561253f57600080fd5b8101908080519060200190929190505050925050505b9392505050565b80600390805190602001906125729291906129e7565b5050565b60606125806125f6565b612588612a67565b61259481610400612602565b61259d8161264c565b60008090505b83518110156125df576125d28482815181106125bb57fe5b60200260200101518361265a90919063ffffffff16565b80806001019150506125a3565b506125e98161267f565b8060000151915050919050565b60405180590338823950565b600081905060006020828161261357fe5b061461262c576020818161262357fe5b06602003810190505b808360200181815250506040518084526000815281810160405250505050565b61265781600461268d565b50565b61266782600283516126ae565b61267a81836127ee90919063ffffffff16565b505050565b61268a81600761268d565b50565b6126aa601f60058360ff16901b178361289990919063ffffffff16565b5050565b601781116126da576126d58160058460ff16901b60ff16178461289990919063ffffffff16565b6127e9565b60ff811161271b576126ff601860058460ff16901b178461289990919063ffffffff16565b612715816001856128d99092919063ffffffff16565b506127e8565b61ffff811161275d57612741601960058460ff16901b178461289990919063ffffffff16565b612757816002856128d99092919063ffffffff16565b506127e7565b63ffffffff81116127a157612785601a60058460ff16901b178461289990919063ffffffff16565b61279b816004856128d99092919063ffffffff16565b506127e6565b67ffffffffffffffff81116127e5576127cd601b60058460ff16901b178461289990919063ffffffff16565b6127e3816008856128d99092919063ffffffff16565b505b5b5b5b5b505050565b6127f6612a67565b826020015183600001515183510111156128265761282583600261281f86602001518651612940565b0261295c565b5b60008060008451905085518051602081830101945086518101825260208701935050505b6020811061286d578151835260208301925060208201915060208103905061284a565b60006001826020036101000a039050801983511681855116818117865250508694505050505092915050565b816020015160018360000151510111156128bf576128be82600284602001510261295c565b5b815180516020818301018381536001820183525050505050565b6128e1612a67565b83602001518460000151518301111561290f5761290e846002612908876020015186612940565b0261295c565b5b60006001836101000a0390508451805184818301018684198251161781528582018352505050849150509392505050565b60008183111561295257829050612956565b8190505b92915050565b60608260000151905061296f8383612602565b61297983826127ee565b50505050565b6040518060800160405280600073ffffffffffffffffffffffffffffffffffffffff1681526020016000801916815260200160008152602001600081525090565b60405180608001604052806004905b60608152602001906001900390816129cf5790505090565b828054600181600116156101000203166002900490600052602060002090601f016020900481019282601f10612a2857805160ff1916838001178555612a56565b82800160010185558215612a56579182015b82811115612a55578251825591602001919060010190612a3a565b5b509050612a639190612a81565b5090565b604051806040016040528060608152602001600081525090565b612aa391905b80821115612a9f576000816000905550600101612a87565b5090565b9056fe416c726561647920706c61636564206f6e65206265742c2077616974696e6720666f722074686520726573756c742ea265627a7a723158208c8a321f226386844944f50f58831f1db322418397bb044dc75e04d35a7b8c1d64736f6c634300050c0032",
  "source": "import \"./Ownable.sol\";\r\nimport \"./provableAPi.sol\";\r\npragma solidity 0.5.12;\r\n\r\ncontract coinFlip is Ownable, usingProvable{\r\n\r\n   struct Bet {\r\n      address payable playerAddress;\r\n      bytes32 betID;\r\n      uint playerChoice;\r\n      uint betAmount;\r\n      //uint betResult;\r\n   }\r\n\r\n   uint256 constant NUM_RANDOM_BYTES_REQUESTED = 1;\r\n   uint256 public latestNumber;\r\n\r\n   modifier min_costs(uint cost){\r\n      require(msg.value >= cost);\r\n      _;\r\n   }\r\n\r\n   mapping (bytes32 => Bet) public currentBets; // collection of current bets pending for a result\r\n   mapping (address => bool) private awaitBets; // check player has a bet going\r\n\r\n   event flipRes(bytes32 queryID, uint playerChoice, address playerAddress);\r\n   event invest(uint value, address player);\r\n   event generatedRandomNumber(uint256 randomNumber);\r\n\r\n   function __callback(bytes32 _queryID, string memory _result, bytes memory _proof) public {\r\n      require(msg.sender == provable_cbAddress());\r\n\r\n      uint256 randomNumber = uint256(keccak256(abi.encodePacked(_result))) % 2;\r\n      latestNumber = randomNumber;\r\n      awaitBets[msg.sender] = false;\r\n      emit generatedRandomNumber(randomNumber);\r\n   }\r\n\r\n   function flipCoin(uint playerChoice) public payable min_costs(0.01 ether) {\r\n     /**\r\n     *   playerChoice: 0 == Heads\r\n     *   playerChoice: 1 == Tails\r\n     */\r\n     require(msg.value >= 0.01 ether, \"Place a bet first.\");\r\n     require(awaitBets[msg.sender] == false, \"Already placed one bet, waiting for the result.\");\r\n\r\n     uint256 QUERY_EXECUTION_DELAY = 0;\r\n     uint256 GAS_FOR_CALLBACK = 200000;\r\n     bytes32 queryID = provable_newRandomDSQuery(QUERY_EXECUTION_DELAY, NUM_RANDOM_BYTES_REQUESTED, GAS_FOR_CALLBACK); //uint result = pseudoRandom();\r\n\r\n     // Create a new bet\r\n     Bet memory newBet;\r\n     newBet.playerAddress = msg.sender;\r\n     newBet.betID = queryID;\r\n     newBet.playerChoice = playerChoice;\r\n     newBet.betAmount = msg.value;\r\n\r\n     addToCurrentBets(newBet.betID, newBet);\r\n\r\n     awaitBets[msg.sender] = true;\r\n\r\n     emit flipRes(newBet.betID, newBet.playerChoice, msg.sender);\r\n\r\n     /**\r\n      *  __callback takes the Id of the query, the result, and proof??\r\n      * emits either 1 or 0 (Heads or Tails);\r\n      **/\r\n     __callback(newBet.betID, \"1\", bytes(\"test\"));\r\n\r\n      //if(result == playerChoice){\r\n         /* pay out winnings */\r\n      //   msg.sender.transfer(msg.value * 2);\r\n      //}\r\n   }\r\n\r\n   function addToCurrentBets(bytes32 queryID, Bet memory newBet) private{\r\n      currentBets[queryID] = newBet;\r\n   }\r\n\r\n   // function pseudoRandom() public view returns (uint){\r\n   //    return now % 2;\r\n   // }\r\n\r\n   // function testRandom() public returns (bytes32) {\r\n   //    bytes32 queryId = bytes32(keccak256(abi.encodePacked(msg.sender)));\r\n   //    __callback(queryId, \"1\", bytes(\"test\"));\r\n   // }\r\n\r\n   function investToContract(uint value) external payable min_costs(0.001 ether){\r\n      emit invest(value, msg.sender);\r\n   }\r\n\r\n   function payOut() public onlyOwner payable{\r\n      if (address(this).balance > 0){\r\n         msg.sender.transfer(address(this).balance);\r\n      }\r\n   }\r\n}\r\n",
  "sourcePath": "D:/blockchainProjects/EthCourse201/coinflip_dapp/contracts/coinFlip.sol",
  "compiler": {
    "name": "solc",
    "version": "0.5.12+commit.7709ece9.Emscripten.clang"
  },
  "schemaVersion": "3.0.16",
  "updatedAt": "2020-09-14T21:06:16.105Z",
  "devdoc": {
    "methods": {
      "__callback(bytes32,string)": {
        "details": "The following `__callback` functions are just placeholders ideally     meant to be defined in child contract when proofs are used.     The function bodies simply silence compiler warnings."
      }
    }
  },
  "userdoc": {
    "methods": {}
  }
}