{
  "contractName": "coinFlip",
  "abi": [
    {
      "anonymous": false,
      "inputs": [
        {
          "indexed": false,
          "internalType": "uint256",
          "name": "result",
          "type": "uint256"
        },
        {
          "indexed": false,
          "internalType": "uint256",
          "name": "playerChoice",
          "type": "uint256"
        },
        {
          "indexed": false,
          "internalType": "address",
          "name": "player",
          "type": "address"
        }
      ],
      "name": "flipRes",
      "type": "event"
    },
    {
      "anonymous": false,
      "inputs": [
        {
          "indexed": false,
          "internalType": "uint256",
          "name": "value",
          "type": "uint256"
        },
        {
          "indexed": false,
          "internalType": "address",
          "name": "player",
          "type": "address"
        }
      ],
      "name": "invest",
      "type": "event"
    },
    {
      "constant": true,
      "inputs": [],
      "name": "payableAddress",
      "outputs": [
        {
          "internalType": "address payable",
          "name": "",
          "type": "address"
        }
      ],
      "payable": false,
      "stateMutability": "view",
      "type": "function"
    },
    {
      "constant": true,
      "inputs": [],
      "name": "playerBalance",
      "outputs": [
        {
          "internalType": "uint256",
          "name": "",
          "type": "uint256"
        }
      ],
      "payable": false,
      "stateMutability": "view",
      "type": "function"
    },
    {
      "constant": false,
      "inputs": [
        {
          "internalType": "uint256",
          "name": "playerChoice",
          "type": "uint256"
        }
      ],
      "name": "flipCoin",
      "outputs": [],
      "payable": true,
      "stateMutability": "payable",
      "type": "function"
    },
    {
      "constant": true,
      "inputs": [],
      "name": "pseudoRandom",
      "outputs": [
        {
          "internalType": "uint256",
          "name": "",
          "type": "uint256"
        }
      ],
      "payable": false,
      "stateMutability": "view",
      "type": "function"
    },
    {
      "constant": false,
      "inputs": [
        {
          "internalType": "uint256",
          "name": "value",
          "type": "uint256"
        }
      ],
      "name": "investToContract",
      "outputs": [],
      "payable": true,
      "stateMutability": "payable",
      "type": "function"
    },
    {
      "constant": false,
      "inputs": [],
      "name": "payOut",
      "outputs": [],
      "payable": true,
      "stateMutability": "payable",
      "type": "function"
    }
  ],
  "bytecode": "0x6080604052336000806101000a81548173ffffffffffffffffffffffffffffffffffffffff021916908373ffffffffffffffffffffffffffffffffffffffff1602179055506104a7806100536000396000f3fe6080604052600436106100555760003560e01c80634685e1a01461005a5780634a6ef25c146100b15780635cee4502146100df5780635f5be1f41461010a578063651f066a14610138578063c205240314610163575b600080fd5b34801561006657600080fd5b5061006f61016d565b604051808273ffffffffffffffffffffffffffffffffffffffff1673ffffffffffffffffffffffffffffffffffffffff16815260200191505060405180910390f35b6100dd600480360360208110156100c757600080fd5b8101908080359060200190929190505050610193565b005b3480156100eb57600080fd5b506100f4610217565b6040518082815260200191505060405180910390f35b6101366004803603602081101561012057600080fd5b8101908080359060200190929190505050610229565b005b34801561014457600080fd5b5061014d610392565b6040518082815260200191505060405180910390f35b61016b610398565b005b600260009054906101000a900473ffffffffffffffffffffffffffffffffffffffff1681565b66038d7ea4c68000803410156101a857600080fd5b7f3d103b975d499cadbf42a81ca1d2a9e5c29a44b0af0a9c32149d39c7baa4ca738233604051808381526020018273ffffffffffffffffffffffffffffffffffffffff1673ffffffffffffffffffffffffffffffffffffffff1681526020019250505060405180910390a15050565b60006002428161022357fe5b06905090565b662386f26fc100008034101561023e57600080fd5b662386f26fc100003410156102bb576040517f08c379a00000000000000000000000000000000000000000000000000000000081526004018080602001828103825260128152602001807f506c6163652061206265742066697273742e000000000000000000000000000081525060200191505060405180910390fd5b60006102c5610217565b90507fa64c8278e219e2886ac2423707ed014670e522341d4778cec8abcbe0e0529915818433604051808481526020018381526020018273ffffffffffffffffffffffffffffffffffffffff1673ffffffffffffffffffffffffffffffffffffffff168152602001935050505060405180910390a18281141561038d573373ffffffffffffffffffffffffffffffffffffffff166108fc600234029081150290604051600060405180830381858888f1935050505015801561038b573d6000803e3d6000fd5b505b505050565b60015481565b6000809054906101000a900473ffffffffffffffffffffffffffffffffffffffff1673ffffffffffffffffffffffffffffffffffffffff163373ffffffffffffffffffffffffffffffffffffffff16146103f157600080fd5b60003073ffffffffffffffffffffffffffffffffffffffff16311115610470573373ffffffffffffffffffffffffffffffffffffffff166108fc3073ffffffffffffffffffffffffffffffffffffffff16319081150290604051600060405180830381858888f1935050505015801561046e573d6000803e3d6000fd5b505b56fea265627a7a7231582040cd577be78657d68d63c1897682d10510555db2fc6d385f926b4f1a969627c764736f6c634300050c0032",
  "source": "import \"./Ownable.sol\";\r\npragma solidity 0.5.12;\r\n\r\ncontract coinFlip is Ownable{\r\n\r\n   uint public playerBalance;\r\n   address payable public payableAddress;\r\n\r\n   modifier min_costs(uint cost){\r\n      require(msg.value >= cost);\r\n      _;\r\n   }\r\n\r\n   event flipRes(uint result, uint playerChoice, address player);\r\n   event invest(uint value, address player);\r\n\r\n   function flipCoin(uint playerChoice) public payable min_costs(0.01 ether) {\r\n     /**\r\n     *   playerChoice: 0 == Heads\r\n     *   playerChoice: 1 == Tails\r\n     */\r\n     require(msg.value >= 0.01 ether, \"Place a bet first.\");\r\n     uint result = pseudoRandom();\r\n     emit flipRes(result, playerChoice, msg.sender);\r\n\r\n      if(result == playerChoice){\r\n         /* pay out winnings */\r\n         msg.sender.transfer(msg.value * 2);\r\n      }\r\n   }\r\n\r\n   function pseudoRandom() public view returns (uint){\r\n      return now % 2;\r\n   }\r\n\r\n   function investToContract(uint value) external payable min_costs(0.001 ether){\r\n      emit invest(value, msg.sender);\r\n   }\r\n\r\n   function payOut() public onlyOwner payable{\r\n      if (address(this).balance > 0){\r\n         msg.sender.transfer(address(this).balance);\r\n      }\r\n   }\r\n}\r\n",
  "sourcePath": "D:/blockchainProjects/EthCourse201/Project_coinFlip/contracts/coinFlip.sol",
  "compiler": {
    "name": "solc",
    "version": "0.5.12+commit.7709ece9.Emscripten.clang"
  },
  "schemaVersion": "3.0.16",
  "updatedAt": "2020-09-02T23:36:27.446Z",
  "devdoc": {
    "methods": {}
  },
  "userdoc": {
    "methods": {}
  }
}